{
  "_format": "hh-sol-artifact-1",
  "contractName": "Amacrux",
  "sourceName": "contracts/Amacrux.sol",
  "abi": [
    {
      "inputs": [],
      "stateMutability": "nonpayable",
      "type": "constructor"
    },
    {
      "anonymous": false,
      "inputs": [
        {
          "indexed": true,
          "internalType": "address",
          "name": "owner",
          "type": "address"
        },
        {
          "indexed": true,
          "internalType": "address",
          "name": "spender",
          "type": "address"
        },
        {
          "indexed": false,
          "internalType": "uint256",
          "name": "value",
          "type": "uint256"
        }
      ],
      "name": "Approval",
      "type": "event"
    },
    {
      "anonymous": false,
      "inputs": [
        {
          "indexed": true,
          "internalType": "address",
          "name": "delegator",
          "type": "address"
        },
        {
          "indexed": true,
          "internalType": "address",
          "name": "fromDelegate",
          "type": "address"
        },
        {
          "indexed": true,
          "internalType": "address",
          "name": "toDelegate",
          "type": "address"
        }
      ],
      "name": "DelegateChanged",
      "type": "event"
    },
    {
      "anonymous": false,
      "inputs": [
        {
          "indexed": true,
          "internalType": "address",
          "name": "delegate",
          "type": "address"
        },
        {
          "indexed": false,
          "internalType": "uint256",
          "name": "previousBalance",
          "type": "uint256"
        },
        {
          "indexed": false,
          "internalType": "uint256",
          "name": "newBalance",
          "type": "uint256"
        }
      ],
      "name": "DelegateVotesChanged",
      "type": "event"
    },
    {
      "anonymous": false,
      "inputs": [
        {
          "indexed": true,
          "internalType": "bytes32",
          "name": "role",
          "type": "bytes32"
        },
        {
          "indexed": true,
          "internalType": "bytes32",
          "name": "previousAdminRole",
          "type": "bytes32"
        },
        {
          "indexed": true,
          "internalType": "bytes32",
          "name": "newAdminRole",
          "type": "bytes32"
        }
      ],
      "name": "RoleAdminChanged",
      "type": "event"
    },
    {
      "anonymous": false,
      "inputs": [
        {
          "indexed": true,
          "internalType": "bytes32",
          "name": "role",
          "type": "bytes32"
        },
        {
          "indexed": true,
          "internalType": "address",
          "name": "account",
          "type": "address"
        },
        {
          "indexed": true,
          "internalType": "address",
          "name": "sender",
          "type": "address"
        }
      ],
      "name": "RoleGranted",
      "type": "event"
    },
    {
      "anonymous": false,
      "inputs": [
        {
          "indexed": true,
          "internalType": "bytes32",
          "name": "role",
          "type": "bytes32"
        },
        {
          "indexed": true,
          "internalType": "address",
          "name": "account",
          "type": "address"
        },
        {
          "indexed": true,
          "internalType": "address",
          "name": "sender",
          "type": "address"
        }
      ],
      "name": "RoleRevoked",
      "type": "event"
    },
    {
      "anonymous": false,
      "inputs": [
        {
          "indexed": false,
          "internalType": "uint256",
          "name": "id",
          "type": "uint256"
        }
      ],
      "name": "Snapshot",
      "type": "event"
    },
    {
      "anonymous": false,
      "inputs": [
        {
          "indexed": true,
          "internalType": "address",
          "name": "from",
          "type": "address"
        },
        {
          "indexed": true,
          "internalType": "address",
          "name": "to",
          "type": "address"
        },
        {
          "indexed": false,
          "internalType": "uint256",
          "name": "value",
          "type": "uint256"
        }
      ],
      "name": "Transfer",
      "type": "event"
    },
    {
      "inputs": [],
      "name": "DEFAULT_ADMIN_ROLE",
      "outputs": [
        {
          "internalType": "bytes32",
          "name": "",
          "type": "bytes32"
        }
      ],
      "stateMutability": "view",
      "type": "function"
    },
    {
      "inputs": [],
      "name": "DOMAIN_SEPARATOR",
      "outputs": [
        {
          "internalType": "bytes32",
          "name": "",
          "type": "bytes32"
        }
      ],
      "stateMutability": "view",
      "type": "function"
    },
    {
      "inputs": [],
      "name": "SNAPSHOT_ROLE",
      "outputs": [
        {
          "internalType": "bytes32",
          "name": "",
          "type": "bytes32"
        }
      ],
      "stateMutability": "view",
      "type": "function"
    },
    {
      "inputs": [
        {
          "internalType": "address",
          "name": "owner",
          "type": "address"
        },
        {
          "internalType": "address",
          "name": "spender",
          "type": "address"
        }
      ],
      "name": "allowance",
      "outputs": [
        {
          "internalType": "uint256",
          "name": "",
          "type": "uint256"
        }
      ],
      "stateMutability": "view",
      "type": "function"
    },
    {
      "inputs": [
        {
          "internalType": "address",
          "name": "spender",
          "type": "address"
        },
        {
          "internalType": "uint256",
          "name": "amount",
          "type": "uint256"
        }
      ],
      "name": "approve",
      "outputs": [
        {
          "internalType": "bool",
          "name": "",
          "type": "bool"
        }
      ],
      "stateMutability": "nonpayable",
      "type": "function"
    },
    {
      "inputs": [
        {
          "internalType": "address",
          "name": "account",
          "type": "address"
        }
      ],
      "name": "balanceOf",
      "outputs": [
        {
          "internalType": "uint256",
          "name": "",
          "type": "uint256"
        }
      ],
      "stateMutability": "view",
      "type": "function"
    },
    {
      "inputs": [
        {
          "internalType": "address",
          "name": "account",
          "type": "address"
        },
        {
          "internalType": "uint256",
          "name": "snapshotId",
          "type": "uint256"
        }
      ],
      "name": "balanceOfAt",
      "outputs": [
        {
          "internalType": "uint256",
          "name": "",
          "type": "uint256"
        }
      ],
      "stateMutability": "view",
      "type": "function"
    },
    {
      "inputs": [
        {
          "internalType": "uint256",
          "name": "amount",
          "type": "uint256"
        }
      ],
      "name": "burn",
      "outputs": [],
      "stateMutability": "nonpayable",
      "type": "function"
    },
    {
      "inputs": [
        {
          "internalType": "address",
          "name": "account",
          "type": "address"
        },
        {
          "internalType": "uint256",
          "name": "amount",
          "type": "uint256"
        }
      ],
      "name": "burnFrom",
      "outputs": [],
      "stateMutability": "nonpayable",
      "type": "function"
    },
    {
      "inputs": [
        {
          "internalType": "address",
          "name": "account",
          "type": "address"
        },
        {
          "internalType": "uint32",
          "name": "pos",
          "type": "uint32"
        }
      ],
      "name": "checkpoints",
      "outputs": [
        {
          "components": [
            {
              "internalType": "uint32",
              "name": "fromBlock",
              "type": "uint32"
            },
            {
              "internalType": "uint224",
              "name": "votes",
              "type": "uint224"
            }
          ],
          "internalType": "struct ERC20Votes.Checkpoint",
          "name": "",
          "type": "tuple"
        }
      ],
      "stateMutability": "view",
      "type": "function"
    },
    {
      "inputs": [],
      "name": "decimals",
      "outputs": [
        {
          "internalType": "uint8",
          "name": "",
          "type": "uint8"
        }
      ],
      "stateMutability": "view",
      "type": "function"
    },
    {
      "inputs": [
        {
          "internalType": "address",
          "name": "spender",
          "type": "address"
        },
        {
          "internalType": "uint256",
          "name": "subtractedValue",
          "type": "uint256"
        }
      ],
      "name": "decreaseAllowance",
      "outputs": [
        {
          "internalType": "bool",
          "name": "",
          "type": "bool"
        }
      ],
      "stateMutability": "nonpayable",
      "type": "function"
    },
    {
      "inputs": [
        {
          "internalType": "address",
          "name": "delegatee",
          "type": "address"
        }
      ],
      "name": "delegate",
      "outputs": [],
      "stateMutability": "nonpayable",
      "type": "function"
    },
    {
      "inputs": [
        {
          "internalType": "address",
          "name": "delegatee",
          "type": "address"
        },
        {
          "internalType": "uint256",
          "name": "nonce",
          "type": "uint256"
        },
        {
          "internalType": "uint256",
          "name": "expiry",
          "type": "uint256"
        },
        {
          "internalType": "uint8",
          "name": "v",
          "type": "uint8"
        },
        {
          "internalType": "bytes32",
          "name": "r",
          "type": "bytes32"
        },
        {
          "internalType": "bytes32",
          "name": "s",
          "type": "bytes32"
        }
      ],
      "name": "delegateBySig",
      "outputs": [],
      "stateMutability": "nonpayable",
      "type": "function"
    },
    {
      "inputs": [
        {
          "internalType": "address",
          "name": "account",
          "type": "address"
        }
      ],
      "name": "delegates",
      "outputs": [
        {
          "internalType": "address",
          "name": "",
          "type": "address"
        }
      ],
      "stateMutability": "view",
      "type": "function"
    },
    {
      "inputs": [
        {
          "internalType": "uint256",
          "name": "blockNumber",
          "type": "uint256"
        }
      ],
      "name": "getPastTotalSupply",
      "outputs": [
        {
          "internalType": "uint256",
          "name": "",
          "type": "uint256"
        }
      ],
      "stateMutability": "view",
      "type": "function"
    },
    {
      "inputs": [
        {
          "internalType": "address",
          "name": "account",
          "type": "address"
        },
        {
          "internalType": "uint256",
          "name": "blockNumber",
          "type": "uint256"
        }
      ],
      "name": "getPastVotes",
      "outputs": [
        {
          "internalType": "uint256",
          "name": "",
          "type": "uint256"
        }
      ],
      "stateMutability": "view",
      "type": "function"
    },
    {
      "inputs": [
        {
          "internalType": "bytes32",
          "name": "role",
          "type": "bytes32"
        }
      ],
      "name": "getRoleAdmin",
      "outputs": [
        {
          "internalType": "bytes32",
          "name": "",
          "type": "bytes32"
        }
      ],
      "stateMutability": "view",
      "type": "function"
    },
    {
      "inputs": [
        {
          "internalType": "address",
          "name": "account",
          "type": "address"
        }
      ],
      "name": "getVotes",
      "outputs": [
        {
          "internalType": "uint256",
          "name": "",
          "type": "uint256"
        }
      ],
      "stateMutability": "view",
      "type": "function"
    },
    {
      "inputs": [
        {
          "internalType": "bytes32",
          "name": "role",
          "type": "bytes32"
        },
        {
          "internalType": "address",
          "name": "account",
          "type": "address"
        }
      ],
      "name": "grantRole",
      "outputs": [],
      "stateMutability": "nonpayable",
      "type": "function"
    },
    {
      "inputs": [
        {
          "internalType": "bytes32",
          "name": "role",
          "type": "bytes32"
        },
        {
          "internalType": "address",
          "name": "account",
          "type": "address"
        }
      ],
      "name": "hasRole",
      "outputs": [
        {
          "internalType": "bool",
          "name": "",
          "type": "bool"
        }
      ],
      "stateMutability": "view",
      "type": "function"
    },
    {
      "inputs": [
        {
          "internalType": "address",
          "name": "spender",
          "type": "address"
        },
        {
          "internalType": "uint256",
          "name": "addedValue",
          "type": "uint256"
        }
      ],
      "name": "increaseAllowance",
      "outputs": [
        {
          "internalType": "bool",
          "name": "",
          "type": "bool"
        }
      ],
      "stateMutability": "nonpayable",
      "type": "function"
    },
    {
      "inputs": [],
      "name": "name",
      "outputs": [
        {
          "internalType": "string",
          "name": "",
          "type": "string"
        }
      ],
      "stateMutability": "view",
      "type": "function"
    },
    {
      "inputs": [
        {
          "internalType": "address",
          "name": "owner",
          "type": "address"
        }
      ],
      "name": "nonces",
      "outputs": [
        {
          "internalType": "uint256",
          "name": "",
          "type": "uint256"
        }
      ],
      "stateMutability": "view",
      "type": "function"
    },
    {
      "inputs": [
        {
          "internalType": "address",
          "name": "account",
          "type": "address"
        }
      ],
      "name": "numCheckpoints",
      "outputs": [
        {
          "internalType": "uint32",
          "name": "",
          "type": "uint32"
        }
      ],
      "stateMutability": "view",
      "type": "function"
    },
    {
      "inputs": [
        {
          "internalType": "address",
          "name": "owner",
          "type": "address"
        },
        {
          "internalType": "address",
          "name": "spender",
          "type": "address"
        },
        {
          "internalType": "uint256",
          "name": "value",
          "type": "uint256"
        },
        {
          "internalType": "uint256",
          "name": "deadline",
          "type": "uint256"
        },
        {
          "internalType": "uint8",
          "name": "v",
          "type": "uint8"
        },
        {
          "internalType": "bytes32",
          "name": "r",
          "type": "bytes32"
        },
        {
          "internalType": "bytes32",
          "name": "s",
          "type": "bytes32"
        }
      ],
      "name": "permit",
      "outputs": [],
      "stateMutability": "nonpayable",
      "type": "function"
    },
    {
      "inputs": [
        {
          "internalType": "bytes32",
          "name": "role",
          "type": "bytes32"
        },
        {
          "internalType": "address",
          "name": "account",
          "type": "address"
        }
      ],
      "name": "renounceRole",
      "outputs": [],
      "stateMutability": "nonpayable",
      "type": "function"
    },
    {
      "inputs": [
        {
          "internalType": "bytes32",
          "name": "role",
          "type": "bytes32"
        },
        {
          "internalType": "address",
          "name": "account",
          "type": "address"
        }
      ],
      "name": "revokeRole",
      "outputs": [],
      "stateMutability": "nonpayable",
      "type": "function"
    },
    {
      "inputs": [],
      "name": "snapshot",
      "outputs": [],
      "stateMutability": "nonpayable",
      "type": "function"
    },
    {
      "inputs": [
        {
          "internalType": "bytes4",
          "name": "interfaceId",
          "type": "bytes4"
        }
      ],
      "name": "supportsInterface",
      "outputs": [
        {
          "internalType": "bool",
          "name": "",
          "type": "bool"
        }
      ],
      "stateMutability": "view",
      "type": "function"
    },
    {
      "inputs": [],
      "name": "symbol",
      "outputs": [
        {
          "internalType": "string",
          "name": "",
          "type": "string"
        }
      ],
      "stateMutability": "view",
      "type": "function"
    },
    {
      "inputs": [],
      "name": "totalSupply",
      "outputs": [
        {
          "internalType": "uint256",
          "name": "",
          "type": "uint256"
        }
      ],
      "stateMutability": "view",
      "type": "function"
    },
    {
      "inputs": [
        {
          "internalType": "uint256",
          "name": "snapshotId",
          "type": "uint256"
        }
      ],
      "name": "totalSupplyAt",
      "outputs": [
        {
          "internalType": "uint256",
          "name": "",
          "type": "uint256"
        }
      ],
      "stateMutability": "view",
      "type": "function"
    },
    {
      "inputs": [
        {
          "internalType": "address",
          "name": "to",
          "type": "address"
        },
        {
          "internalType": "uint256",
          "name": "amount",
          "type": "uint256"
        }
      ],
      "name": "transfer",
      "outputs": [
        {
          "internalType": "bool",
          "name": "",
          "type": "bool"
        }
      ],
      "stateMutability": "nonpayable",
      "type": "function"
    },
    {
      "inputs": [
        {
          "internalType": "address",
          "name": "from",
          "type": "address"
        },
        {
          "internalType": "address",
          "name": "to",
          "type": "address"
        },
        {
          "internalType": "uint256",
          "name": "amount",
          "type": "uint256"
        }
      ],
      "name": "transferFrom",
      "outputs": [
        {
          "internalType": "bool",
          "name": "",
          "type": "bool"
        }
      ],
      "stateMutability": "nonpayable",
      "type": "function"
    }
  ],
  "bytecode": "0x6101406040523480156200001257600080fd5b506040518060400160405280600781526020017f416d616372757800000000000000000000000000000000000000000000000000815250806040518060400160405280600181526020017f31000000000000000000000000000000000000000000000000000000000000008152506040518060400160405280600781526020017f416d6163727578000000000000000000000000000000000000000000000000008152506040518060400160405280600481526020017f414d41580000000000000000000000000000000000000000000000000000000081525081600390805190602001906200010492919062001026565b5080600490805190602001906200011d92919062001026565b50505060008280519060200120905060008280519060200120905060007f8b73c3c69bb8fe3d512ecc4cf759cc79239f7b179b0ffacaa9a75d522b39400f90508260e081815250508161010081815250504660a08181525050620001898184846200026160201b60201c565b608081815250503073ffffffffffffffffffffffffffffffffffffffff1660c08173ffffffffffffffffffffffffffffffffffffffff1681525050806101208181525050505050505050620001e86000801b336200029d60201b60201c565b6200021a7f5fdbd35e8da83ee755d5e62a539e5ed7f47126abede0b8b10f9ea43dc6eed07f336200029d60201b60201c565b6200025b336200022f6200038f60201b60201c565b600a6200023d919062001270565b6401dcd650006200024f9190620012c1565b6200039860201b60201c565b620017b1565b600083838346306040516020016200027e95949392919062001393565b6040516020818303038152906040528051906020012090509392505050565b620002af8282620003b360201b60201c565b6200038b5760016009600084815260200190815260200160002060000160008373ffffffffffffffffffffffffffffffffffffffff1673ffffffffffffffffffffffffffffffffffffffff16815260200190815260200160002060006101000a81548160ff021916908315150217905550620003306200041e60201b60201c565b73ffffffffffffffffffffffffffffffffffffffff168173ffffffffffffffffffffffffffffffffffffffff16837f2f8788117e7eff1d82e926ec794901d17c78024a50270940304540a733656f0d60405160405180910390a45b5050565b60006012905090565b620003af82826200042660201b6200140c1760201c565b5050565b60006009600084815260200190815260200160002060000160008373ffffffffffffffffffffffffffffffffffffffff1673ffffffffffffffffffffffffffffffffffffffff16815260200190815260200160002060009054906101000a900460ff16905092915050565b600033905090565b6200043d8282620004e460201b620014991760201c565b6200044d6200065d60201b60201c565b7bffffffffffffffffffffffffffffffffffffffffffffffffffffffff166200047b6200068160201b60201c565b1115620004bf576040517f08c379a0000000000000000000000000000000000000000000000000000000008152600401620004b69062001477565b60405180910390fd5b620004de600e6200068b60201b620015f91783620006a360201b60201c565b50505050565b600073ffffffffffffffffffffffffffffffffffffffff168273ffffffffffffffffffffffffffffffffffffffff16141562000557576040517f08c379a00000000000000000000000000000000000000000000000000000000081526004016200054e90620014e9565b60405180910390fd5b6200056b600083836200095460201b60201c565b80600260008282546200057f91906200150b565b92505081905550806000808473ffffffffffffffffffffffffffffffffffffffff1673ffffffffffffffffffffffffffffffffffffffff1681526020019081526020016000206000828254620005d691906200150b565b925050819055508173ffffffffffffffffffffffffffffffffffffffff16600073ffffffffffffffffffffffffffffffffffffffff167fddf252ad1be2c89b69c2b068fc378daa952ba7f163c4a11628f55a4df523b3ef836040516200063d919062001568565b60405180910390a362000659600083836200097160201b60201c565b5050565b60007bffffffffffffffffffffffffffffffffffffffffffffffffffffffff905090565b6000600254905090565b600081836200069b91906200150b565b905092915050565b60008060008580549050905060008114620007185785600182620006c8919062001585565b81548110620006dc57620006db620015c0565b5b9060005260206000200160000160049054906101000a90047bffffffffffffffffffffffffffffffffffffffffffffffffffffffff166200071b565b60005b7bffffffffffffffffffffffffffffffffffffffffffffffffffffffff1692506200074783858760201c565b9150600081118015620007a05750438660018362000766919062001585565b815481106200077a5762000779620015c0565b5b9060005260206000200160000160009054906101000a900463ffffffff1663ffffffff16145b156200084157620007bc826200098e60201b6200160f1760201c565b86600183620007cc919062001585565b81548110620007e057620007df620015c0565b5b9060005260206000200160000160046101000a8154817bffffffffffffffffffffffffffffffffffffffffffffffffffffffff02191690837bffffffffffffffffffffffffffffffffffffffffffffffffffffffff1602179055506200094b565b8560405180604001604052806200086343620009fc60201b6200167a1760201c565b63ffffffff16815260200162000884856200098e60201b6200160f1760201c565b7bffffffffffffffffffffffffffffffffffffffffffffffffffffffff168152509080600181540180825580915050600190039060005260206000200160009091909190915060008201518160000160006101000a81548163ffffffff021916908363ffffffff16021790555060208201518160000160046101000a8154817bffffffffffffffffffffffffffffffffffffffffffffffffffffffff02191690837bffffffffffffffffffffffffffffffffffffffffffffffffffffffff16021790555050505b50935093915050565b6200096c83838362000a5260201b620016cd1760201c565b505050565b6200098983838362000b4d60201b620017871760201c565b505050565b60007bffffffffffffffffffffffffffffffffffffffffffffffffffffffff8016821115620009f4576040517f08c379a0000000000000000000000000000000000000000000000000000000008152600401620009eb9062001665565b60405180910390fd5b819050919050565b600063ffffffff801682111562000a4a576040517f08c379a000000000000000000000000000000000000000000000000000000000815260040162000a4190620016fd565b60405180910390fd5b819050919050565b62000a6a83838362000b9d60201b620017b21760201c565b600073ffffffffffffffffffffffffffffffffffffffff168373ffffffffffffffffffffffffffffffffffffffff16141562000ac75762000ab18262000ba260201b60201c565b62000ac162000c0560201b60201c565b62000b48565b600073ffffffffffffffffffffffffffffffffffffffff168273ffffffffffffffffffffffffffffffffffffffff16141562000b245762000b0e8362000ba260201b60201c565b62000b1e62000c0560201b60201c565b62000b47565b62000b358362000ba260201b60201c565b62000b468262000ba260201b60201c565b5b5b505050565b62000b6583838362000c2960201b620017b71760201c565b62000b9862000b7a8462000c2e60201b60201c565b62000b8b8462000c2e60201b60201c565b8362000c9760201b60201c565b505050565b505050565b62000c02600560008373ffffffffffffffffffffffffffffffffffffffff1673ffffffffffffffffffffffffffffffffffffffff16815260200190815260200160002062000bf68362000eba60201b60201c565b62000f0260201b60201c565b50565b62000c27600662000c1b6200068160201b60201c565b62000f0260201b60201c565b565b505050565b6000600c60008373ffffffffffffffffffffffffffffffffffffffff1673ffffffffffffffffffffffffffffffffffffffff16815260200190815260200160002060009054906101000a900473ffffffffffffffffffffffffffffffffffffffff169050919050565b8173ffffffffffffffffffffffffffffffffffffffff168373ffffffffffffffffffffffffffffffffffffffff161415801562000cd45750600081115b1562000eb557600073ffffffffffffffffffffffffffffffffffffffff168373ffffffffffffffffffffffffffffffffffffffff161462000dc75760008062000d6e600d60008773ffffffffffffffffffffffffffffffffffffffff1673ffffffffffffffffffffffffffffffffffffffff16815260200190815260200160002062000f8e60201b620017bc1785620006a360201b60201c565b915091508473ffffffffffffffffffffffffffffffffffffffff167fdec2bacdd2f05b59de34da9b523dff8be42e5e38e818c82fdb0bae774387a724838360405162000dbc9291906200171f565b60405180910390a250505b600073ffffffffffffffffffffffffffffffffffffffff168273ffffffffffffffffffffffffffffffffffffffff161462000eb45760008062000e5b600d60008673ffffffffffffffffffffffffffffffffffffffff1673ffffffffffffffffffffffffffffffffffffffff1681526020019081526020016000206200068b60201b620015f91785620006a360201b60201c565b915091508373ffffffffffffffffffffffffffffffffffffffff167fdec2bacdd2f05b59de34da9b523dff8be42e5e38e818c82fdb0bae774387a724838360405162000ea99291906200171f565b60405180910390a250505b5b505050565b60008060008373ffffffffffffffffffffffffffffffffffffffff1673ffffffffffffffffffffffffffffffffffffffff168152602001908152602001600020549050919050565b600062000f1462000fa660201b60201c565b90508062000f2b8460000162000fc460201b60201c565b101562000f895782600001819080600181540180825580915050600190039060005260206000200160009091909190915055826001018290806001815401808255809150506001900390600052602060002001600090919091909150555b505050565b6000818362000f9e919062001585565b905092915050565b600062000fbf60086200101860201b620017d21760201c565b905090565b6000808280549050141562000fdd576000905062001013565b816001838054905062000ff1919062001585565b81548110620010055762001004620015c0565b5b906000526020600020015490505b919050565b600081600001549050919050565b82805462001034906200177b565b90600052602060002090601f016020900481019282620010585760008555620010a4565b82601f106200107357805160ff1916838001178555620010a4565b82800160010185558215620010a4579182015b82811115620010a357825182559160200191906001019062001086565b5b509050620010b39190620010b7565b5090565b5b80821115620010d2576000816000905550600101620010b8565b5090565b7f4e487b7100000000000000000000000000000000000000000000000000000000600052601160045260246000fd5b60008160011c9050919050565b6000808291508390505b600185111562001164578086048111156200113c576200113b620010d6565b5b60018516156200114c5780820291505b80810290506200115c8562001105565b94506200111c565b94509492505050565b6000826200117f576001905062001252565b816200118f576000905062001252565b8160018114620011a85760028114620011b357620011e9565b600191505062001252565b60ff841115620011c857620011c7620010d6565b5b8360020a915084821115620011e257620011e1620010d6565b5b5062001252565b5060208310610133831016604e8410600b8410161715620012235782820a9050838111156200121d576200121c620010d6565b5b62001252565b62001232848484600162001112565b925090508184048111156200124c576200124b620010d6565b5b81810290505b9392505050565b6000819050919050565b600060ff82169050919050565b60006200127d8262001259565b91506200128a8362001263565b9250620012b97fffffffffffffffffffffffffffffffffffffffffffffffffffffffffffffffff84846200116d565b905092915050565b6000620012ce8262001259565b9150620012db8362001259565b9250817fffffffffffffffffffffffffffffffffffffffffffffffffffffffffffffffff0483118215151615620013175762001316620010d6565b5b828202905092915050565b6000819050919050565b620013378162001322565b82525050565b620013488162001259565b82525050565b600073ffffffffffffffffffffffffffffffffffffffff82169050919050565b60006200137b826200134e565b9050919050565b6200138d816200136e565b82525050565b600060a082019050620013aa60008301886200132c565b620013b960208301876200132c565b620013c860408301866200132c565b620013d760608301856200133d565b620013e6608083018462001382565b9695505050505050565b600082825260208201905092915050565b7f4552433230566f7465733a20746f74616c20737570706c79207269736b73206f60008201527f766572666c6f77696e6720766f74657300000000000000000000000000000000602082015250565b60006200145f603083620013f0565b91506200146c8262001401565b604082019050919050565b60006020820190508181036000830152620014928162001450565b9050919050565b7f45524332303a206d696e7420746f20746865207a65726f206164647265737300600082015250565b6000620014d1601f83620013f0565b9150620014de8262001499565b602082019050919050565b600060208201905081810360008301526200150481620014c2565b9050919050565b6000620015188262001259565b9150620015258362001259565b9250827fffffffffffffffffffffffffffffffffffffffffffffffffffffffffffffffff038211156200155d576200155c620010d6565b5b828201905092915050565b60006020820190506200157f60008301846200133d565b92915050565b6000620015928262001259565b91506200159f8362001259565b925082821015620015b557620015b4620010d6565b5b828203905092915050565b7f4e487b7100000000000000000000000000000000000000000000000000000000600052603260045260246000fd5b7f53616665436173743a2076616c756520646f65736e27742066697420696e203260008201527f3234206269747300000000000000000000000000000000000000000000000000602082015250565b60006200164d602783620013f0565b91506200165a82620015ef565b604082019050919050565b6000602082019050818103600083015262001680816200163e565b9050919050565b7f53616665436173743a2076616c756520646f65736e27742066697420696e203360008201527f3220626974730000000000000000000000000000000000000000000000000000602082015250565b6000620016e5602683620013f0565b9150620016f28262001687565b604082019050919050565b600060208201905081810360008301526200171881620016d6565b9050919050565b60006040820190506200173660008301856200133d565b6200174560208301846200133d565b9392505050565b7f4e487b7100000000000000000000000000000000000000000000000000000000600052602260045260246000fd5b600060028204905060018216806200179457607f821691505b60208210811415620017ab57620017aa6200174c565b5b50919050565b60805160a05160c05160e0516101005161012051614daf620018016000396000611ecd01526000611f0f01526000611eee01526000611e2301526000611e7901526000611ea20152614daf6000f3fe608060405234801561001057600080fd5b50600436106102115760003560e01c80637028e2cd116101255780639ab24eb0116100ad578063c3cda5201161007c578063c3cda520146106ae578063d505accf146106ca578063d547741f146106e6578063dd62ed3e14610702578063f1127ed81461073257610211565b80639ab24eb014610600578063a217fddf14610630578063a457c2d71461064e578063a9059cbb1461067e57610211565b80638e539e8c116100f45780638e539e8c1461054857806391d148541461057857806395d89b41146105a85780639711715a146105c6578063981b24d0146105d057610211565b80637028e2cd146104ae57806370a08231146104cc57806379cc6790146104fc5780637ecebe001461051857610211565b80633644e515116101a857806342966c681161017757806342966c68146103e65780634ee2cd7e14610402578063587cde1e146104325780635c19a95c146104625780636fcfff451461047e57610211565b80633644e5151461034c57806336568abe1461036a57806339509351146103865780633a46b1a8146103b657610211565b806323b872dd116101e457806323b872dd146102b2578063248a9ca3146102e25780632f2ff15d14610312578063313ce5671461032e57610211565b806301ffc9a71461021657806306fdde0314610246578063095ea7b31461026457806318160ddd14610294575b600080fd5b610230600480360381019061022b9190613401565b610762565b60405161023d9190613449565b60405180910390f35b61024e6107dc565b60405161025b91906134fd565b60405180910390f35b61027e600480360381019061027991906135b3565b61086e565b60405161028b9190613449565b60405180910390f35b61029c610891565b6040516102a99190613602565b60405180910390f35b6102cc60048036038101906102c7919061361d565b61089b565b6040516102d99190613449565b60405180910390f35b6102fc60048036038101906102f791906136a6565b6108ca565b60405161030991906136e2565b60405180910390f35b61032c600480360381019061032791906136fd565b6108ea565b005b61033661090b565b6040516103439190613759565b60405180910390f35b610354610914565b60405161036191906136e2565b60405180910390f35b610384600480360381019061037f91906136fd565b610923565b005b6103a0600480360381019061039b91906135b3565b6109a6565b6040516103ad9190613449565b60405180910390f35b6103d060048036038101906103cb91906135b3565b6109dd565b6040516103dd9190613602565b60405180910390f35b61040060048036038101906103fb9190613774565b610a71565b005b61041c600480360381019061041791906135b3565b610a85565b6040516104299190613602565b60405180910390f35b61044c600480360381019061044791906137a1565b610af5565b60405161045991906137dd565b60405180910390f35b61047c600480360381019061047791906137a1565b610b5e565b005b610498600480360381019061049391906137a1565b610b72565b6040516104a59190613817565b60405180910390f35b6104b6610bc6565b6040516104c391906136e2565b60405180910390f35b6104e660048036038101906104e191906137a1565b610bea565b6040516104f39190613602565b60405180910390f35b610516600480360381019061051191906135b3565b610c32565b005b610532600480360381019061052d91906137a1565b610c52565b60405161053f9190613602565b60405180910390f35b610562600480360381019061055d9190613774565b610ca2565b60405161056f9190613602565b60405180910390f35b610592600480360381019061058d91906136fd565b610cf8565b60405161059f9190613449565b60405180910390f35b6105b0610d63565b6040516105bd91906134fd565b60405180910390f35b6105ce610df5565b005b6105ea60048036038101906105e59190613774565b610e2b565b6040516105f79190613602565b60405180910390f35b61061a600480360381019061061591906137a1565b610e5c565b6040516106279190613602565b60405180910390f35b610638610f6d565b60405161064591906136e2565b60405180910390f35b610668600480360381019061066391906135b3565b610f74565b6040516106759190613449565b60405180910390f35b610698600480360381019061069391906135b3565b610feb565b6040516106a59190613449565b60405180910390f35b6106c860048036038101906106c3919061385e565b61100e565b005b6106e460048036038101906106df91906138eb565b611112565b005b61070060048036038101906106fb91906136fd565b611254565b005b61071c6004803603810190610717919061398d565b611275565b6040516107299190613602565b60405180910390f35b61074c600480360381019061074791906139f9565b6112fc565b6040516107599190613aae565b60405180910390f35b60007f7965db0b000000000000000000000000000000000000000000000000000000007bffffffffffffffffffffffffffffffffffffffffffffffffffffffff1916827bffffffffffffffffffffffffffffffffffffffffffffffffffffffff191614806107d557506107d4826117e0565b5b9050919050565b6060600380546107eb90613af8565b80601f016020809104026020016040519081016040528092919081815260200182805461081790613af8565b80156108645780601f1061083957610100808354040283529160200191610864565b820191906000526020600020905b81548152906001019060200180831161084757829003601f168201915b5050505050905090565b60008061087961184a565b9050610886818585611852565b600191505092915050565b6000600254905090565b6000806108a661184a565b90506108b3858285611a1d565b6108be858585611aa9565b60019150509392505050565b600060096000838152602001908152602001600020600101549050919050565b6108f3826108ca565b6108fc81611d2a565b6109068383611d3e565b505050565b60006012905090565b600061091e611e1f565b905090565b61092b61184a565b73ffffffffffffffffffffffffffffffffffffffff168173ffffffffffffffffffffffffffffffffffffffff1614610998576040517f08c379a000000000000000000000000000000000000000000000000000000000815260040161098f90613b9c565b60405180910390fd5b6109a28282611f39565b5050565b6000806109b161184a565b90506109d28185856109c38589611275565b6109cd9190613beb565b611852565b600191505092915050565b6000438210610a21576040517f08c379a0000000000000000000000000000000000000000000000000000000008152600401610a1890613c8d565b60405180910390fd5b610a69600d60008573ffffffffffffffffffffffffffffffffffffffff1673ffffffffffffffffffffffffffffffffffffffff1681526020019081526020016000208361201b565b905092915050565b610a82610a7c61184a565b82612127565b50565b6000806000610ad284600560008873ffffffffffffffffffffffffffffffffffffffff1673ffffffffffffffffffffffffffffffffffffffff168152602001908152602001600020612135565b9150915081610ae957610ae485610bea565b610aeb565b805b9250505092915050565b6000600c60008373ffffffffffffffffffffffffffffffffffffffff1673ffffffffffffffffffffffffffffffffffffffff16815260200190815260200160002060009054906101000a900473ffffffffffffffffffffffffffffffffffffffff169050919050565b610b6f610b6961184a565b8261222b565b50565b6000610bbf600d60008473ffffffffffffffffffffffffffffffffffffffff1673ffffffffffffffffffffffffffffffffffffffff1681526020019081526020016000208054905061167a565b9050919050565b7f5fdbd35e8da83ee755d5e62a539e5ed7f47126abede0b8b10f9ea43dc6eed07f81565b60008060008373ffffffffffffffffffffffffffffffffffffffff1673ffffffffffffffffffffffffffffffffffffffff168152602001908152602001600020549050919050565b610c4482610c3e61184a565b83611a1d565b610c4e8282612127565b5050565b6000610c9b600a60008473ffffffffffffffffffffffffffffffffffffffff1673ffffffffffffffffffffffffffffffffffffffff1681526020019081526020016000206117d2565b9050919050565b6000438210610ce6576040517f08c379a0000000000000000000000000000000000000000000000000000000008152600401610cdd90613c8d565b60405180910390fd5b610cf1600e8361201b565b9050919050565b60006009600084815260200190815260200160002060000160008373ffffffffffffffffffffffffffffffffffffffff1673ffffffffffffffffffffffffffffffffffffffff16815260200190815260200160002060009054906101000a900460ff16905092915050565b606060048054610d7290613af8565b80601f0160208091040260200160405190810160405280929190818152602001828054610d9e90613af8565b8015610deb5780601f10610dc057610100808354040283529160200191610deb565b820191906000526020600020905b815481529060010190602001808311610dce57829003601f168201915b5050505050905090565b7f5fdbd35e8da83ee755d5e62a539e5ed7f47126abede0b8b10f9ea43dc6eed07f610e1f81611d2a565b610e27612345565b5050565b6000806000610e3b846006612135565b9150915081610e5157610e4c610891565b610e53565b805b92505050919050565b600080600d60008473ffffffffffffffffffffffffffffffffffffffff1673ffffffffffffffffffffffffffffffffffffffff16815260200190815260200160002080549050905060008114610f4457600d60008473ffffffffffffffffffffffffffffffffffffffff1673ffffffffffffffffffffffffffffffffffffffff168152602001908152602001600020600182610ef89190613cad565b81548110610f0957610f08613ce1565b5b9060005260206000200160000160049054906101000a90047bffffffffffffffffffffffffffffffffffffffffffffffffffffffff16610f47565b60005b7bffffffffffffffffffffffffffffffffffffffffffffffffffffffff16915050919050565b6000801b81565b600080610f7f61184a565b90506000610f8d8286611275565b905083811015610fd2576040517f08c379a0000000000000000000000000000000000000000000000000000000008152600401610fc990613d82565b60405180910390fd5b610fdf8286868403611852565b60019250505092915050565b600080610ff661184a565b9050611003818585611aa9565b600191505092915050565b83421115611051576040517f08c379a000000000000000000000000000000000000000000000000000000000815260040161104890613dee565b60405180910390fd5b60006110b36110ab7fe48329057bfd03d55e49b547132e39cffd9c1820ad7b9d4c5307691425d15adf8989896040516020016110909493929190613e0e565b6040516020818303038152906040528051906020012061239b565b8585856123b5565b90506110be816123e0565b86146110ff576040517f08c379a00000000000000000000000000000000000000000000000000000000081526004016110f690613e9f565b60405180910390fd5b611109818861222b565b50505050505050565b83421115611155576040517f08c379a000000000000000000000000000000000000000000000000000000000815260040161114c90613f0b565b60405180910390fd5b60007f6e71edae12b1b97f4d1f60370fef10105fa2faae0126114a169c64845d6126c98888886111848c6123e0565b8960405160200161119a96959493929190613f2b565b60405160208183030381529060405280519060200120905060006111bd8261239b565b905060006111cd828787876123b5565b90508973ffffffffffffffffffffffffffffffffffffffff168173ffffffffffffffffffffffffffffffffffffffff161461123d576040517f08c379a000000000000000000000000000000000000000000000000000000000815260040161123490613fd8565b60405180910390fd5b6112488a8a8a611852565b50505050505050505050565b61125d826108ca565b61126681611d2a565b6112708383611f39565b505050565b6000600160008473ffffffffffffffffffffffffffffffffffffffff1673ffffffffffffffffffffffffffffffffffffffff16815260200190815260200160002060008373ffffffffffffffffffffffffffffffffffffffff1673ffffffffffffffffffffffffffffffffffffffff16815260200190815260200160002054905092915050565b611304613366565b600d60008473ffffffffffffffffffffffffffffffffffffffff1673ffffffffffffffffffffffffffffffffffffffff1681526020019081526020016000208263ffffffff168154811061135b5761135a613ce1565b5b906000526020600020016040518060400160405290816000820160009054906101000a900463ffffffff1663ffffffff1663ffffffff1681526020016000820160049054906101000a90047bffffffffffffffffffffffffffffffffffffffffffffffffffffffff167bffffffffffffffffffffffffffffffffffffffffffffffffffffffff167bffffffffffffffffffffffffffffffffffffffffffffffffffffffff1681525050905092915050565b6114168282611499565b61141e61243e565b7bffffffffffffffffffffffffffffffffffffffffffffffffffffffff16611444610891565b1115611485576040517f08c379a000000000000000000000000000000000000000000000000000000000815260040161147c9061406a565b60405180910390fd5b611493600e6115f983612462565b50505050565b600073ffffffffffffffffffffffffffffffffffffffff168273ffffffffffffffffffffffffffffffffffffffff161415611509576040517f08c379a0000000000000000000000000000000000000000000000000000000008152600401611500906140d6565b60405180910390fd5b611515600083836126da565b80600260008282546115279190613beb565b92505081905550806000808473ffffffffffffffffffffffffffffffffffffffff1673ffffffffffffffffffffffffffffffffffffffff168152602001908152602001600020600082825461157c9190613beb565b925050819055508173ffffffffffffffffffffffffffffffffffffffff16600073ffffffffffffffffffffffffffffffffffffffff167fddf252ad1be2c89b69c2b068fc378daa952ba7f163c4a11628f55a4df523b3ef836040516115e19190613602565b60405180910390a36115f5600083836126ea565b5050565b600081836116079190613beb565b905092915050565b60007bffffffffffffffffffffffffffffffffffffffffffffffffffffffff8016821115611672576040517f08c379a000000000000000000000000000000000000000000000000000000000815260040161166990614168565b60405180910390fd5b819050919050565b600063ffffffff80168211156116c5576040517f08c379a00000000000000000000000000000000000000000000000000000000081526004016116bc906141fa565b60405180910390fd5b819050919050565b6116d88383836117b2565b600073ffffffffffffffffffffffffffffffffffffffff168373ffffffffffffffffffffffffffffffffffffffff16141561172357611716826126fa565b61171e61274d565b611782565b600073ffffffffffffffffffffffffffffffffffffffff168273ffffffffffffffffffffffffffffffffffffffff16141561176e57611761836126fa565b61176961274d565b611781565b611777836126fa565b611780826126fa565b5b5b505050565b6117928383836117b7565b6117ad61179e84610af5565b6117a784610af5565b83612761565b505050565b505050565b505050565b600081836117ca9190613cad565b905092915050565b600081600001549050919050565b60007f01ffc9a7000000000000000000000000000000000000000000000000000000007bffffffffffffffffffffffffffffffffffffffffffffffffffffffff1916827bffffffffffffffffffffffffffffffffffffffffffffffffffffffff1916149050919050565b600033905090565b600073ffffffffffffffffffffffffffffffffffffffff168373ffffffffffffffffffffffffffffffffffffffff1614156118c2576040517f08c379a00000000000000000000000000000000000000000000000000000000081526004016118b99061428c565b60405180910390fd5b600073ffffffffffffffffffffffffffffffffffffffff168273ffffffffffffffffffffffffffffffffffffffff161415611932576040517f08c379a00000000000000000000000000000000000000000000000000000000081526004016119299061431e565b60405180910390fd5b80600160008573ffffffffffffffffffffffffffffffffffffffff1673ffffffffffffffffffffffffffffffffffffffff16815260200190815260200160002060008473ffffffffffffffffffffffffffffffffffffffff1673ffffffffffffffffffffffffffffffffffffffff168152602001908152602001600020819055508173ffffffffffffffffffffffffffffffffffffffff168373ffffffffffffffffffffffffffffffffffffffff167f8c5be1e5ebec7d5bd14f71427d1e84f3dd0314c0f7b2291e5b200ac8c7c3b92583604051611a109190613602565b60405180910390a3505050565b6000611a298484611275565b90507fffffffffffffffffffffffffffffffffffffffffffffffffffffffffffffffff8114611aa35781811015611a95576040517f08c379a0000000000000000000000000000000000000000000000000000000008152600401611a8c9061438a565b60405180910390fd5b611aa28484848403611852565b5b50505050565b600073ffffffffffffffffffffffffffffffffffffffff168373ffffffffffffffffffffffffffffffffffffffff161415611b19576040517f08c379a0000000000000000000000000000000000000000000000000000000008152600401611b109061441c565b60405180910390fd5b600073ffffffffffffffffffffffffffffffffffffffff168273ffffffffffffffffffffffffffffffffffffffff161415611b89576040517f08c379a0000000000000000000000000000000000000000000000000000000008152600401611b80906144ae565b60405180910390fd5b611b948383836126da565b60008060008573ffffffffffffffffffffffffffffffffffffffff1673ffffffffffffffffffffffffffffffffffffffff16815260200190815260200160002054905081811015611c1a576040517f08c379a0000000000000000000000000000000000000000000000000000000008152600401611c1190614540565b60405180910390fd5b8181036000808673ffffffffffffffffffffffffffffffffffffffff1673ffffffffffffffffffffffffffffffffffffffff16815260200190815260200160002081905550816000808573ffffffffffffffffffffffffffffffffffffffff1673ffffffffffffffffffffffffffffffffffffffff1681526020019081526020016000206000828254611cad9190613beb565b925050819055508273ffffffffffffffffffffffffffffffffffffffff168473ffffffffffffffffffffffffffffffffffffffff167fddf252ad1be2c89b69c2b068fc378daa952ba7f163c4a11628f55a4df523b3ef84604051611d119190613602565b60405180910390a3611d248484846126ea565b50505050565b611d3b81611d3661184a565b61295a565b50565b611d488282610cf8565b611e1b5760016009600084815260200190815260200160002060000160008373ffffffffffffffffffffffffffffffffffffffff1673ffffffffffffffffffffffffffffffffffffffff16815260200190815260200160002060006101000a81548160ff021916908315150217905550611dc061184a565b73ffffffffffffffffffffffffffffffffffffffff168173ffffffffffffffffffffffffffffffffffffffff16837f2f8788117e7eff1d82e926ec794901d17c78024a50270940304540a733656f0d60405160405180910390a45b5050565b60007f000000000000000000000000000000000000000000000000000000000000000073ffffffffffffffffffffffffffffffffffffffff163073ffffffffffffffffffffffffffffffffffffffff16148015611e9b57507f000000000000000000000000000000000000000000000000000000000000000046145b15611ec8577f00000000000000000000000000000000000000000000000000000000000000009050611f36565b611f337f00000000000000000000000000000000000000000000000000000000000000007f00000000000000000000000000000000000000000000000000000000000000007f00000000000000000000000000000000000000000000000000000000000000006129f7565b90505b90565b611f438282610cf8565b156120175760006009600084815260200190815260200160002060000160008373ffffffffffffffffffffffffffffffffffffffff1673ffffffffffffffffffffffffffffffffffffffff16815260200190815260200160002060006101000a81548160ff021916908315150217905550611fbc61184a565b73ffffffffffffffffffffffffffffffffffffffff168173ffffffffffffffffffffffffffffffffffffffff16837ff6391f5c32d9c69d2a47ea670b442974b53935d1edc7fd64eb21e047a839171b60405160405180910390a45b5050565b6000808380549050905060005b8181101561209a57600061203c8284612a31565b90508486828154811061205257612051613ce1565b5b9060005260206000200160000160009054906101000a900463ffffffff1663ffffffff16111561208457809250612094565b6001816120919190613beb565b91505b50612028565b600082146120fc57846001836120b09190613cad565b815481106120c1576120c0613ce1565b5b9060005260206000200160000160049054906101000a90047bffffffffffffffffffffffffffffffffffffffffffffffffffffffff166120ff565b60005b7bffffffffffffffffffffffffffffffffffffffffffffffffffffffff169250505092915050565b6121318282612a57565b5050565b6000806000841161217b576040517f08c379a0000000000000000000000000000000000000000000000000000000008152600401612172906145ac565b60405180910390fd5b612183612a75565b8411156121c5576040517f08c379a00000000000000000000000000000000000000000000000000000000081526004016121bc90614618565b60405180910390fd5b60006121dd8585600001612a8690919063ffffffff16565b905083600001805490508114156121fb576000809250925050612224565b600184600101828154811061221357612212613ce1565b5b906000526020600020015492509250505b9250929050565b600061223683610af5565b9050600061224384610bea565b905082600c60008673ffffffffffffffffffffffffffffffffffffffff1673ffffffffffffffffffffffffffffffffffffffff16815260200190815260200160002060006101000a81548173ffffffffffffffffffffffffffffffffffffffff021916908373ffffffffffffffffffffffffffffffffffffffff1602179055508273ffffffffffffffffffffffffffffffffffffffff168273ffffffffffffffffffffffffffffffffffffffff168573ffffffffffffffffffffffffffffffffffffffff167f3134e8a2e6d97e929a7e54011ea5485d7d196dd5f0ba4d4ef95803e8e3fc257f60405160405180910390a461233f828483612761565b50505050565b60006123516008612b60565b600061235b612a75565b90507f8030e83b04d87bef53480e26263266d6ca66863aa8506aca6f2559d18aa1cb678160405161238c9190613602565b60405180910390a18091505090565b60006123ae6123a8611e1f565b83612b76565b9050919050565b60008060006123c687878787612ba9565b915091506123d381612cb6565b8192505050949350505050565b600080600a60008473ffffffffffffffffffffffffffffffffffffffff1673ffffffffffffffffffffffffffffffffffffffff168152602001908152602001600020905061242d816117d2565b915061243881612b60565b50919050565b60007bffffffffffffffffffffffffffffffffffffffffffffffffffffffff905090565b600080600085805490509050600081146124d057856001826124849190613cad565b8154811061249557612494613ce1565b5b9060005260206000200160000160049054906101000a90047bffffffffffffffffffffffffffffffffffffffffffffffffffffffff166124d3565b60005b7bffffffffffffffffffffffffffffffffffffffffffffffffffffffff16925061250183858763ffffffff16565b91506000811180156125545750438660018361251d9190613cad565b8154811061252e5761252d613ce1565b5b9060005260206000200160000160009054906101000a900463ffffffff1663ffffffff16145b156125e1576125628261160f565b866001836125709190613cad565b8154811061258157612580613ce1565b5b9060005260206000200160000160046101000a8154817bffffffffffffffffffffffffffffffffffffffffffffffffffffffff02191690837bffffffffffffffffffffffffffffffffffffffffffffffffffffffff1602179055506126d1565b8560405180604001604052806125f64361167a565b63ffffffff16815260200161260a8561160f565b7bffffffffffffffffffffffffffffffffffffffffffffffffffffffff168152509080600181540180825580915050600190039060005260206000200160009091909190915060008201518160000160006101000a81548163ffffffff021916908363ffffffff16021790555060208201518160000160046101000a8154817bffffffffffffffffffffffffffffffffffffffffffffffffffffffff02191690837bffffffffffffffffffffffffffffffffffffffffffffffffffffffff16021790555050505b50935093915050565b6126e58383836116cd565b505050565b6126f5838383611787565b505050565b61274a600560008373ffffffffffffffffffffffffffffffffffffffff1673ffffffffffffffffffffffffffffffffffffffff16815260200190815260200160002061274583610bea565b612e8b565b50565b61275f600661275a610891565b612e8b565b565b8173ffffffffffffffffffffffffffffffffffffffff168373ffffffffffffffffffffffffffffffffffffffff161415801561279d5750600081115b1561295557600073ffffffffffffffffffffffffffffffffffffffff168373ffffffffffffffffffffffffffffffffffffffff161461287b57600080612824600d60008773ffffffffffffffffffffffffffffffffffffffff1673ffffffffffffffffffffffffffffffffffffffff1681526020019081526020016000206117bc85612462565b915091508473ffffffffffffffffffffffffffffffffffffffff167fdec2bacdd2f05b59de34da9b523dff8be42e5e38e818c82fdb0bae774387a7248383604051612870929190614638565b60405180910390a250505b600073ffffffffffffffffffffffffffffffffffffffff168273ffffffffffffffffffffffffffffffffffffffff1614612954576000806128fd600d60008673ffffffffffffffffffffffffffffffffffffffff1673ffffffffffffffffffffffffffffffffffffffff1681526020019081526020016000206115f985612462565b915091508373ffffffffffffffffffffffffffffffffffffffff167fdec2bacdd2f05b59de34da9b523dff8be42e5e38e818c82fdb0bae774387a7248383604051612949929190614638565b60405180910390a250505b5b505050565b6129648282610cf8565b6129f3576129898173ffffffffffffffffffffffffffffffffffffffff166014612f06565b6129978360001c6020612f06565b6040516020016129a8929190614735565b6040516020818303038152906040526040517f08c379a00000000000000000000000000000000000000000000000000000000081526004016129ea91906134fd565b60405180910390fd5b5050565b60008383834630604051602001612a1295949392919061476f565b6040516020818303038152906040528051906020012090509392505050565b60006002828418612a4291906147f1565b828416612a4f9190613beb565b905092915050565b612a618282613142565b612a6f600e6117bc83612462565b50505050565b6000612a8160086117d2565b905090565b60008083805490501415612a9d5760009050612b5a565b600080848054905090505b80821015612b01576000612abc8383612a31565b905084868281548110612ad257612ad1613ce1565b5b90600052602060002001541115612aeb57809150612afb565b600181612af89190613beb565b92505b50612aa8565b600082118015612b3957508385600184612b1b9190613cad565b81548110612b2c57612b2b613ce1565b5b9060005260206000200154145b15612b5457600182612b4b9190613cad565b92505050612b5a565b81925050505b92915050565b6001816000016000828254019250508190555050565b60008282604051602001612b8b92919061488f565b60405160208183030381529060405280519060200120905092915050565b6000807f7fffffffffffffffffffffffffffffff5d576e7357a4501ddfe92f46681b20a08360001c1115612be4576000600391509150612cad565b601b8560ff1614158015612bfc5750601c8560ff1614155b15612c0e576000600491509150612cad565b600060018787878760405160008152602001604052604051612c3394939291906148c6565b6020604051602081039080840390855afa158015612c55573d6000803e3d6000fd5b505050602060405103519050600073ffffffffffffffffffffffffffffffffffffffff168173ffffffffffffffffffffffffffffffffffffffff161415612ca457600060019250925050612cad565b80600092509250505b94509492505050565b60006004811115612cca57612cc961490b565b5b816004811115612cdd57612cdc61490b565b5b1415612ce857612e88565b60016004811115612cfc57612cfb61490b565b5b816004811115612d0f57612d0e61490b565b5b1415612d50576040517f08c379a0000000000000000000000000000000000000000000000000000000008152600401612d4790614986565b60405180910390fd5b60026004811115612d6457612d6361490b565b5b816004811115612d7757612d7661490b565b5b1415612db8576040517f08c379a0000000000000000000000000000000000000000000000000000000008152600401612daf906149f2565b60405180910390fd5b60036004811115612dcc57612dcb61490b565b5b816004811115612ddf57612dde61490b565b5b1415612e20576040517f08c379a0000000000000000000000000000000000000000000000000000000008152600401612e1790614a84565b60405180910390fd5b600480811115612e3357612e3261490b565b5b816004811115612e4657612e4561490b565b5b1415612e87576040517f08c379a0000000000000000000000000000000000000000000000000000000008152600401612e7e90614b16565b60405180910390fd5b5b50565b6000612e95612a75565b905080612ea484600001613319565b1015612f015782600001819080600181540180825580915050600190039060005260206000200160009091909190915055826001018290806001815401808255809150506001900390600052602060002001600090919091909150555b505050565b606060006002836002612f199190614b36565b612f239190613beb565b67ffffffffffffffff811115612f3c57612f3b614b90565b5b6040519080825280601f01601f191660200182016040528015612f6e5781602001600182028036833780820191505090505b5090507f300000000000000000000000000000000000000000000000000000000000000081600081518110612fa657612fa5613ce1565b5b60200101907effffffffffffffffffffffffffffffffffffffffffffffffffffffffffffff1916908160001a9053507f78000000000000000000000000000000000000000000000000000000000000008160018151811061300a57613009613ce1565b5b60200101907effffffffffffffffffffffffffffffffffffffffffffffffffffffffffffff1916908160001a9053506000600184600261304a9190614b36565b6130549190613beb565b90505b60018111156130f4577f3031323334353637383961626364656600000000000000000000000000000000600f86166010811061309657613095613ce1565b5b1a60f81b8282815181106130ad576130ac613ce1565b5b60200101907effffffffffffffffffffffffffffffffffffffffffffffffffffffffffffff1916908160001a905350600485901c9450806130ed90614bbf565b9050613057565b5060008414613138576040517f08c379a000000000000000000000000000000000000000000000000000000000815260040161312f90614c35565b60405180910390fd5b8091505092915050565b600073ffffffffffffffffffffffffffffffffffffffff168273ffffffffffffffffffffffffffffffffffffffff1614156131b2576040517f08c379a00000000000000000000000000000000000000000000000000000000081526004016131a990614cc7565b60405180910390fd5b6131be826000836126da565b60008060008473ffffffffffffffffffffffffffffffffffffffff1673ffffffffffffffffffffffffffffffffffffffff16815260200190815260200160002054905081811015613244576040517f08c379a000000000000000000000000000000000000000000000000000000000815260040161323b90614d59565b60405180910390fd5b8181036000808573ffffffffffffffffffffffffffffffffffffffff1673ffffffffffffffffffffffffffffffffffffffff16815260200190815260200160002081905550816002600082825461329b9190613cad565b92505081905550600073ffffffffffffffffffffffffffffffffffffffff168373ffffffffffffffffffffffffffffffffffffffff167fddf252ad1be2c89b69c2b068fc378daa952ba7f163c4a11628f55a4df523b3ef846040516133009190613602565b60405180910390a3613314836000846126ea565b505050565b600080828054905014156133305760009050613361565b81600183805490506133429190613cad565b8154811061335357613352613ce1565b5b906000526020600020015490505b919050565b6040518060400160405280600063ffffffff16815260200160007bffffffffffffffffffffffffffffffffffffffffffffffffffffffff1681525090565b600080fd5b60007fffffffff0000000000000000000000000000000000000000000000000000000082169050919050565b6133de816133a9565b81146133e957600080fd5b50565b6000813590506133fb816133d5565b92915050565b600060208284031215613417576134166133a4565b5b6000613425848285016133ec565b91505092915050565b60008115159050919050565b6134438161342e565b82525050565b600060208201905061345e600083018461343a565b92915050565b600081519050919050565b600082825260208201905092915050565b60005b8381101561349e578082015181840152602081019050613483565b838111156134ad576000848401525b50505050565b6000601f19601f8301169050919050565b60006134cf82613464565b6134d9818561346f565b93506134e9818560208601613480565b6134f2816134b3565b840191505092915050565b6000602082019050818103600083015261351781846134c4565b905092915050565b600073ffffffffffffffffffffffffffffffffffffffff82169050919050565b600061354a8261351f565b9050919050565b61355a8161353f565b811461356557600080fd5b50565b60008135905061357781613551565b92915050565b6000819050919050565b6135908161357d565b811461359b57600080fd5b50565b6000813590506135ad81613587565b92915050565b600080604083850312156135ca576135c96133a4565b5b60006135d885828601613568565b92505060206135e98582860161359e565b9150509250929050565b6135fc8161357d565b82525050565b600060208201905061361760008301846135f3565b92915050565b600080600060608486031215613636576136356133a4565b5b600061364486828701613568565b935050602061365586828701613568565b92505060406136668682870161359e565b9150509250925092565b6000819050919050565b61368381613670565b811461368e57600080fd5b50565b6000813590506136a08161367a565b92915050565b6000602082840312156136bc576136bb6133a4565b5b60006136ca84828501613691565b91505092915050565b6136dc81613670565b82525050565b60006020820190506136f760008301846136d3565b92915050565b60008060408385031215613714576137136133a4565b5b600061372285828601613691565b925050602061373385828601613568565b9150509250929050565b600060ff82169050919050565b6137538161373d565b82525050565b600060208201905061376e600083018461374a565b92915050565b60006020828403121561378a576137896133a4565b5b60006137988482850161359e565b91505092915050565b6000602082840312156137b7576137b66133a4565b5b60006137c584828501613568565b91505092915050565b6137d78161353f565b82525050565b60006020820190506137f260008301846137ce565b92915050565b600063ffffffff82169050919050565b613811816137f8565b82525050565b600060208201905061382c6000830184613808565b92915050565b61383b8161373d565b811461384657600080fd5b50565b60008135905061385881613832565b92915050565b60008060008060008060c0878903121561387b5761387a6133a4565b5b600061388989828a01613568565b965050602061389a89828a0161359e565b95505060406138ab89828a0161359e565b94505060606138bc89828a01613849565b93505060806138cd89828a01613691565b92505060a06138de89828a01613691565b9150509295509295509295565b600080600080600080600060e0888a03121561390a576139096133a4565b5b60006139188a828b01613568565b97505060206139298a828b01613568565b965050604061393a8a828b0161359e565b955050606061394b8a828b0161359e565b945050608061395c8a828b01613849565b93505060a061396d8a828b01613691565b92505060c061397e8a828b01613691565b91505092959891949750929550565b600080604083850312156139a4576139a36133a4565b5b60006139b285828601613568565b92505060206139c385828601613568565b9150509250929050565b6139d6816137f8565b81146139e157600080fd5b50565b6000813590506139f3816139cd565b92915050565b60008060408385031215613a1057613a0f6133a4565b5b6000613a1e85828601613568565b9250506020613a2f858286016139e4565b9150509250929050565b613a42816137f8565b82525050565b60007bffffffffffffffffffffffffffffffffffffffffffffffffffffffff82169050919050565b613a7981613a48565b82525050565b604082016000820151613a956000850182613a39565b506020820151613aa86020850182613a70565b50505050565b6000604082019050613ac36000830184613a7f565b92915050565b7f4e487b7100000000000000000000000000000000000000000000000000000000600052602260045260246000fd5b60006002820490506001821680613b1057607f821691505b60208210811415613b2457613b23613ac9565b5b50919050565b7f416363657373436f6e74726f6c3a2063616e206f6e6c792072656e6f756e636560008201527f20726f6c657320666f722073656c660000000000000000000000000000000000602082015250565b6000613b86602f8361346f565b9150613b9182613b2a565b604082019050919050565b60006020820190508181036000830152613bb581613b79565b9050919050565b7f4e487b7100000000000000000000000000000000000000000000000000000000600052601160045260246000fd5b6000613bf68261357d565b9150613c018361357d565b9250827fffffffffffffffffffffffffffffffffffffffffffffffffffffffffffffffff03821115613c3657613c35613bbc565b5b828201905092915050565b7f4552433230566f7465733a20626c6f636b206e6f7420796574206d696e656400600082015250565b6000613c77601f8361346f565b9150613c8282613c41565b602082019050919050565b60006020820190508181036000830152613ca681613c6a565b9050919050565b6000613cb88261357d565b9150613cc38361357d565b925082821015613cd657613cd5613bbc565b5b828203905092915050565b7f4e487b7100000000000000000000000000000000000000000000000000000000600052603260045260246000fd5b7f45524332303a2064656372656173656420616c6c6f77616e63652062656c6f7760008201527f207a65726f000000000000000000000000000000000000000000000000000000602082015250565b6000613d6c60258361346f565b9150613d7782613d10565b604082019050919050565b60006020820190508181036000830152613d9b81613d5f565b9050919050565b7f4552433230566f7465733a207369676e61747572652065787069726564000000600082015250565b6000613dd8601d8361346f565b9150613de382613da2565b602082019050919050565b60006020820190508181036000830152613e0781613dcb565b9050919050565b6000608082019050613e2360008301876136d3565b613e3060208301866137ce565b613e3d60408301856135f3565b613e4a60608301846135f3565b95945050505050565b7f4552433230566f7465733a20696e76616c6964206e6f6e636500000000000000600082015250565b6000613e8960198361346f565b9150613e9482613e53565b602082019050919050565b60006020820190508181036000830152613eb881613e7c565b9050919050565b7f45524332305065726d69743a206578706972656420646561646c696e65000000600082015250565b6000613ef5601d8361346f565b9150613f0082613ebf565b602082019050919050565b60006020820190508181036000830152613f2481613ee8565b9050919050565b600060c082019050613f4060008301896136d3565b613f4d60208301886137ce565b613f5a60408301876137ce565b613f6760608301866135f3565b613f7460808301856135f3565b613f8160a08301846135f3565b979650505050505050565b7f45524332305065726d69743a20696e76616c6964207369676e61747572650000600082015250565b6000613fc2601e8361346f565b9150613fcd82613f8c565b602082019050919050565b60006020820190508181036000830152613ff181613fb5565b9050919050565b7f4552433230566f7465733a20746f74616c20737570706c79207269736b73206f60008201527f766572666c6f77696e6720766f74657300000000000000000000000000000000602082015250565b600061405460308361346f565b915061405f82613ff8565b604082019050919050565b6000602082019050818103600083015261408381614047565b9050919050565b7f45524332303a206d696e7420746f20746865207a65726f206164647265737300600082015250565b60006140c0601f8361346f565b91506140cb8261408a565b602082019050919050565b600060208201905081810360008301526140ef816140b3565b9050919050565b7f53616665436173743a2076616c756520646f65736e27742066697420696e203260008201527f3234206269747300000000000000000000000000000000000000000000000000602082015250565b600061415260278361346f565b915061415d826140f6565b604082019050919050565b6000602082019050818103600083015261418181614145565b9050919050565b7f53616665436173743a2076616c756520646f65736e27742066697420696e203360008201527f3220626974730000000000000000000000000000000000000000000000000000602082015250565b60006141e460268361346f565b91506141ef82614188565b604082019050919050565b60006020820190508181036000830152614213816141d7565b9050919050565b7f45524332303a20617070726f76652066726f6d20746865207a65726f2061646460008201527f7265737300000000000000000000000000000000000000000000000000000000602082015250565b600061427660248361346f565b91506142818261421a565b604082019050919050565b600060208201905081810360008301526142a581614269565b9050919050565b7f45524332303a20617070726f766520746f20746865207a65726f20616464726560008201527f7373000000000000000000000000000000000000000000000000000000000000602082015250565b600061430860228361346f565b9150614313826142ac565b604082019050919050565b60006020820190508181036000830152614337816142fb565b9050919050565b7f45524332303a20696e73756666696369656e7420616c6c6f77616e6365000000600082015250565b6000614374601d8361346f565b915061437f8261433e565b602082019050919050565b600060208201905081810360008301526143a381614367565b9050919050565b7f45524332303a207472616e736665722066726f6d20746865207a65726f20616460008201527f6472657373000000000000000000000000000000000000000000000000000000602082015250565b600061440660258361346f565b9150614411826143aa565b604082019050919050565b60006020820190508181036000830152614435816143f9565b9050919050565b7f45524332303a207472616e7366657220746f20746865207a65726f206164647260008201527f6573730000000000000000000000000000000000000000000000000000000000602082015250565b600061449860238361346f565b91506144a38261443c565b604082019050919050565b600060208201905081810360008301526144c78161448b565b9050919050565b7f45524332303a207472616e7366657220616d6f756e742065786365656473206260008201527f616c616e63650000000000000000000000000000000000000000000000000000602082015250565b600061452a60268361346f565b9150614535826144ce565b604082019050919050565b600060208201905081810360008301526145598161451d565b9050919050565b7f4552433230536e617073686f743a206964206973203000000000000000000000600082015250565b600061459660168361346f565b91506145a182614560565b602082019050919050565b600060208201905081810360008301526145c581614589565b9050919050565b7f4552433230536e617073686f743a206e6f6e6578697374656e74206964000000600082015250565b6000614602601d8361346f565b915061460d826145cc565b602082019050919050565b60006020820190508181036000830152614631816145f5565b9050919050565b600060408201905061464d60008301856135f3565b61465a60208301846135f3565b9392505050565b600081905092915050565b7f416363657373436f6e74726f6c3a206163636f756e7420000000000000000000600082015250565b60006146a2601783614661565b91506146ad8261466c565b601782019050919050565b60006146c382613464565b6146cd8185614661565b93506146dd818560208601613480565b80840191505092915050565b7f206973206d697373696e6720726f6c6520000000000000000000000000000000600082015250565b600061471f601183614661565b915061472a826146e9565b601182019050919050565b600061474082614695565b915061474c82856146b8565b915061475782614712565b915061476382846146b8565b91508190509392505050565b600060a08201905061478460008301886136d3565b61479160208301876136d3565b61479e60408301866136d3565b6147ab60608301856135f3565b6147b860808301846137ce565b9695505050505050565b7f4e487b7100000000000000000000000000000000000000000000000000000000600052601260045260246000fd5b60006147fc8261357d565b91506148078361357d565b925082614817576148166147c2565b5b828204905092915050565b7f1901000000000000000000000000000000000000000000000000000000000000600082015250565b6000614858600283614661565b915061486382614822565b600282019050919050565b6000819050919050565b61488961488482613670565b61486e565b82525050565b600061489a8261484b565b91506148a68285614878565b6020820191506148b68284614878565b6020820191508190509392505050565b60006080820190506148db60008301876136d3565b6148e8602083018661374a565b6148f560408301856136d3565b61490260608301846136d3565b95945050505050565b7f4e487b7100000000000000000000000000000000000000000000000000000000600052602160045260246000fd5b7f45434453413a20696e76616c6964207369676e61747572650000000000000000600082015250565b600061497060188361346f565b915061497b8261493a565b602082019050919050565b6000602082019050818103600083015261499f81614963565b9050919050565b7f45434453413a20696e76616c6964207369676e6174757265206c656e67746800600082015250565b60006149dc601f8361346f565b91506149e7826149a6565b602082019050919050565b60006020820190508181036000830152614a0b816149cf565b9050919050565b7f45434453413a20696e76616c6964207369676e6174757265202773272076616c60008201527f7565000000000000000000000000000000000000000000000000000000000000602082015250565b6000614a6e60228361346f565b9150614a7982614a12565b604082019050919050565b60006020820190508181036000830152614a9d81614a61565b9050919050565b7f45434453413a20696e76616c6964207369676e6174757265202776272076616c60008201527f7565000000000000000000000000000000000000000000000000000000000000602082015250565b6000614b0060228361346f565b9150614b0b82614aa4565b604082019050919050565b60006020820190508181036000830152614b2f81614af3565b9050919050565b6000614b418261357d565b9150614b4c8361357d565b9250817fffffffffffffffffffffffffffffffffffffffffffffffffffffffffffffffff0483118215151615614b8557614b84613bbc565b5b828202905092915050565b7f4e487b7100000000000000000000000000000000000000000000000000000000600052604160045260246000fd5b6000614bca8261357d565b91506000821415614bde57614bdd613bbc565b5b600182039050919050565b7f537472696e67733a20686578206c656e67746820696e73756666696369656e74600082015250565b6000614c1f60208361346f565b9150614c2a82614be9565b602082019050919050565b60006020820190508181036000830152614c4e81614c12565b9050919050565b7f45524332303a206275726e2066726f6d20746865207a65726f2061646472657360008201527f7300000000000000000000000000000000000000000000000000000000000000602082015250565b6000614cb160218361346f565b9150614cbc82614c55565b604082019050919050565b60006020820190508181036000830152614ce081614ca4565b9050919050565b7f45524332303a206275726e20616d6f756e7420657863656564732062616c616e60008201527f6365000000000000000000000000000000000000000000000000000000000000602082015250565b6000614d4360228361346f565b9150614d4e82614ce7565b604082019050919050565b60006020820190508181036000830152614d7281614d36565b905091905056fea26469706673582212201fa5417012b5a548525354cc9e2ff48bf33a89ea733aac2cbb0060077a85215564736f6c63430008090033",
  "linkReferences": {},
  "deployedLinkReferences": {}
}